{
  "contractName": "DividendRightsToken",
  "abi": [
    {
      "inputs": [
        {
          "internalType": "string",
          "name": "name",
          "type": "string"
        },
        {
          "internalType": "string",
          "name": "symbol",
          "type": "string"
        },
        {
          "internalType": "contract ISuperToken",
          "name": "cashToken",
          "type": "address"
        },
        {
          "internalType": "contract ISuperfluid",
          "name": "host",
          "type": "address"
        },
        {
          "internalType": "contract IInstantDistributionAgreementV1",
          "name": "ida",
          "type": "address"
        }
      ],
      "stateMutability": "nonpayable",
      "type": "constructor"
    },
    {
      "anonymous": false,
      "inputs": [
        {
          "indexed": true,
          "internalType": "address",
          "name": "owner",
          "type": "address"
        },
        {
          "indexed": true,
          "internalType": "address",
          "name": "spender",
          "type": "address"
        },
        {
          "indexed": false,
          "internalType": "uint256",
          "name": "value",
          "type": "uint256"
        }
      ],
      "name": "Approval",
      "type": "event"
    },
    {
      "anonymous": false,
      "inputs": [
        {
          "indexed": true,
          "internalType": "address",
          "name": "previousOwner",
          "type": "address"
        },
        {
          "indexed": true,
          "internalType": "address",
          "name": "newOwner",
          "type": "address"
        }
      ],
      "name": "OwnershipTransferred",
      "type": "event"
    },
    {
      "anonymous": false,
      "inputs": [
        {
          "indexed": true,
          "internalType": "address",
          "name": "from",
          "type": "address"
        },
        {
          "indexed": true,
          "internalType": "address",
          "name": "to",
          "type": "address"
        },
        {
          "indexed": false,
          "internalType": "uint256",
          "name": "value",
          "type": "uint256"
        }
      ],
      "name": "Transfer",
      "type": "event"
    },
    {
      "inputs": [],
      "name": "INDEX_ID",
      "outputs": [
        {
          "internalType": "uint32",
          "name": "",
          "type": "uint32"
        }
      ],
      "stateMutability": "view",
      "type": "function"
    },
    {
      "inputs": [
        {
          "internalType": "contract ISuperToken",
          "name": "",
          "type": "address"
        },
        {
          "internalType": "address",
          "name": "",
          "type": "address"
        },
        {
          "internalType": "bytes32",
          "name": "",
          "type": "bytes32"
        },
        {
          "internalType": "bytes",
          "name": "",
          "type": "bytes"
        },
        {
          "internalType": "bytes",
          "name": "",
          "type": "bytes"
        },
        {
          "internalType": "bytes",
          "name": "",
          "type": "bytes"
        }
      ],
      "name": "afterAgreementTerminated",
      "outputs": [
        {
          "internalType": "bytes",
          "name": "",
          "type": "bytes"
        }
      ],
      "stateMutability": "nonpayable",
      "type": "function"
    },
    {
      "inputs": [
        {
          "internalType": "address",
          "name": "owner",
          "type": "address"
        },
        {
          "internalType": "address",
          "name": "spender",
          "type": "address"
        }
      ],
      "name": "allowance",
      "outputs": [
        {
          "internalType": "uint256",
          "name": "",
          "type": "uint256"
        }
      ],
      "stateMutability": "view",
      "type": "function"
    },
    {
      "inputs": [
        {
          "internalType": "address",
          "name": "spender",
          "type": "address"
        },
        {
          "internalType": "uint256",
          "name": "amount",
          "type": "uint256"
        }
      ],
      "name": "approve",
      "outputs": [
        {
          "internalType": "bool",
          "name": "",
          "type": "bool"
        }
      ],
      "stateMutability": "nonpayable",
      "type": "function"
    },
    {
      "inputs": [
        {
          "internalType": "address",
          "name": "account",
          "type": "address"
        }
      ],
      "name": "balanceOf",
      "outputs": [
        {
          "internalType": "uint256",
          "name": "",
          "type": "uint256"
        }
      ],
      "stateMutability": "view",
      "type": "function"
    },
    {
      "inputs": [
        {
          "internalType": "contract ISuperToken",
          "name": "",
          "type": "address"
        },
        {
          "internalType": "address",
          "name": "",
          "type": "address"
        },
        {
          "internalType": "bytes32",
          "name": "",
          "type": "bytes32"
        },
        {
          "internalType": "bytes",
          "name": "",
          "type": "bytes"
        },
        {
          "internalType": "bytes",
          "name": "",
          "type": "bytes"
        }
      ],
      "name": "beforeAgreementTerminated",
      "outputs": [
        {
          "internalType": "bytes",
          "name": "",
          "type": "bytes"
        }
      ],
      "stateMutability": "view",
      "type": "function"
    },
    {
      "inputs": [],
      "name": "decimals",
      "outputs": [
        {
          "internalType": "uint8",
          "name": "",
          "type": "uint8"
        }
      ],
      "stateMutability": "view",
      "type": "function"
    },
    {
      "inputs": [
        {
          "internalType": "address",
          "name": "spender",
          "type": "address"
        },
        {
          "internalType": "uint256",
          "name": "subtractedValue",
          "type": "uint256"
        }
      ],
      "name": "decreaseAllowance",
      "outputs": [
        {
          "internalType": "bool",
          "name": "",
          "type": "bool"
        }
      ],
      "stateMutability": "nonpayable",
      "type": "function"
    },
    {
      "inputs": [
        {
          "internalType": "address",
          "name": "spender",
          "type": "address"
        },
        {
          "internalType": "uint256",
          "name": "addedValue",
          "type": "uint256"
        }
      ],
      "name": "increaseAllowance",
      "outputs": [
        {
          "internalType": "bool",
          "name": "",
          "type": "bool"
        }
      ],
      "stateMutability": "nonpayable",
      "type": "function"
    },
    {
      "inputs": [
        {
          "internalType": "address",
          "name": "",
          "type": "address"
        }
      ],
      "name": "isSubscribing",
      "outputs": [
        {
          "internalType": "bool",
          "name": "",
          "type": "bool"
        }
      ],
      "stateMutability": "view",
      "type": "function"
    },
    {
      "inputs": [],
      "name": "name",
      "outputs": [
        {
          "internalType": "string",
          "name": "",
          "type": "string"
        }
      ],
      "stateMutability": "view",
      "type": "function"
    },
    {
      "inputs": [],
      "name": "owner",
      "outputs": [
        {
          "internalType": "address",
          "name": "",
          "type": "address"
        }
      ],
      "stateMutability": "view",
      "type": "function"
    },
    {
      "inputs": [],
      "name": "renounceOwnership",
      "outputs": [],
      "stateMutability": "nonpayable",
      "type": "function"
    },
    {
      "inputs": [],
      "name": "symbol",
      "outputs": [
        {
          "internalType": "string",
          "name": "",
          "type": "string"
        }
      ],
      "stateMutability": "view",
      "type": "function"
    },
    {
      "inputs": [],
      "name": "totalSupply",
      "outputs": [
        {
          "internalType": "uint256",
          "name": "",
          "type": "uint256"
        }
      ],
      "stateMutability": "view",
      "type": "function"
    },
    {
      "inputs": [
        {
          "internalType": "address",
          "name": "recipient",
          "type": "address"
        },
        {
          "internalType": "uint256",
          "name": "amount",
          "type": "uint256"
        }
      ],
      "name": "transfer",
      "outputs": [
        {
          "internalType": "bool",
          "name": "",
          "type": "bool"
        }
      ],
      "stateMutability": "nonpayable",
      "type": "function"
    },
    {
      "inputs": [
        {
          "internalType": "address",
          "name": "sender",
          "type": "address"
        },
        {
          "internalType": "address",
          "name": "recipient",
          "type": "address"
        },
        {
          "internalType": "uint256",
          "name": "amount",
          "type": "uint256"
        }
      ],
      "name": "transferFrom",
      "outputs": [
        {
          "internalType": "bool",
          "name": "",
          "type": "bool"
        }
      ],
      "stateMutability": "nonpayable",
      "type": "function"
    },
    {
      "inputs": [
        {
          "internalType": "address",
          "name": "newOwner",
          "type": "address"
        }
      ],
      "name": "transferOwnership",
      "outputs": [],
      "stateMutability": "nonpayable",
      "type": "function"
    },
    {
      "inputs": [
        {
          "internalType": "contract ISuperToken",
          "name": "superToken",
          "type": "address"
        },
        {
          "internalType": "address",
          "name": "agreementClass",
          "type": "address"
        },
        {
          "internalType": "bytes32",
          "name": "",
          "type": "bytes32"
        },
        {
          "internalType": "bytes",
          "name": "",
          "type": "bytes"
        },
        {
          "internalType": "bytes",
          "name": "",
          "type": "bytes"
        }
      ],
      "name": "beforeAgreementCreated",
      "outputs": [
        {
          "internalType": "bytes",
          "name": "data",
          "type": "bytes"
        }
      ],
      "stateMutability": "view",
      "type": "function"
    },
    {
      "inputs": [
        {
          "internalType": "contract ISuperToken",
          "name": "superToken",
          "type": "address"
        },
        {
          "internalType": "address",
          "name": "",
          "type": "address"
        },
        {
          "internalType": "bytes32",
          "name": "agreementId",
          "type": "bytes32"
        },
        {
          "internalType": "bytes",
          "name": "",
          "type": "bytes"
        },
        {
          "internalType": "bytes",
          "name": "",
          "type": "bytes"
        },
        {
          "internalType": "bytes",
          "name": "ctx",
          "type": "bytes"
        }
      ],
      "name": "afterAgreementCreated",
      "outputs": [
        {
          "internalType": "bytes",
          "name": "newCtx",
          "type": "bytes"
        }
      ],
      "stateMutability": "nonpayable",
      "type": "function"
    },
    {
      "inputs": [
        {
          "internalType": "contract ISuperToken",
          "name": "superToken",
          "type": "address"
        },
        {
          "internalType": "address",
          "name": "agreementClass",
          "type": "address"
        },
        {
          "internalType": "bytes32",
          "name": "",
          "type": "bytes32"
        },
        {
          "internalType": "bytes",
          "name": "",
          "type": "bytes"
        },
        {
          "internalType": "bytes",
          "name": "",
          "type": "bytes"
        }
      ],
      "name": "beforeAgreementUpdated",
      "outputs": [
        {
          "internalType": "bytes",
          "name": "data",
          "type": "bytes"
        }
      ],
      "stateMutability": "view",
      "type": "function"
    },
    {
      "inputs": [
        {
          "internalType": "contract ISuperToken",
          "name": "superToken",
          "type": "address"
        },
        {
          "internalType": "address",
          "name": "",
          "type": "address"
        },
        {
          "internalType": "bytes32",
          "name": "agreementId",
          "type": "bytes32"
        },
        {
          "internalType": "bytes",
          "name": "",
          "type": "bytes"
        },
        {
          "internalType": "bytes",
          "name": "",
          "type": "bytes"
        },
        {
          "internalType": "bytes",
          "name": "ctx",
          "type": "bytes"
        }
      ],
      "name": "afterAgreementUpdated",
      "outputs": [
        {
          "internalType": "bytes",
          "name": "newCtx",
          "type": "bytes"
        }
      ],
      "stateMutability": "nonpayable",
      "type": "function"
    },
    {
      "inputs": [
        {
          "internalType": "address",
          "name": "beneficiary",
          "type": "address"
        },
        {
          "internalType": "uint256",
          "name": "amount",
          "type": "uint256"
        }
      ],
      "name": "issue",
      "outputs": [],
      "stateMutability": "nonpayable",
      "type": "function"
    },
    {
      "inputs": [
        {
          "internalType": "uint256",
          "name": "cashAmount",
          "type": "uint256"
        }
      ],
      "name": "distribute",
      "outputs": [],
      "stateMutability": "nonpayable",
      "type": "function"
    }
  ],
  "bytecode": "0x60806040523480156200001157600080fd5b50604051620048e4380380620048e48339818101604052810190620000379190620008dc565b848460006200004b620004e660201b60201c565b9050806000806101000a81548173ffffffffffffffffffffffffffffffffffffffff021916908373ffffffffffffffffffffffffffffffffffffffff1602179055508073ffffffffffffffffffffffffffffffffffffffff16600073ffffffffffffffffffffffffffffffffffffffff167f8be0079c531659141344cd1fd0a4f28419497f9722a3daafe3b4186f6b6457e060405160405180910390a350816004908051906020019062000101929190620006f4565b5080600590805190602001906200011a929190620006f4565b506012600660006101000a81548160ff021916908360ff160217905550505082600660016101000a81548173ffffffffffffffffffffffffffffffffffffffff021916908373ffffffffffffffffffffffffffffffffffffffff16021790555081600760006101000a81548173ffffffffffffffffffffffffffffffffffffffff021916908373ffffffffffffffffffffffffffffffffffffffff16021790555080600860006101000a81548173ffffffffffffffffffffffffffffffffffffffff021916908373ffffffffffffffffffffffffffffffffffffffff1602179055506000642000000000641000000000600117179050600760009054906101000a900473ffffffffffffffffffffffffffffffffffffffff1673ffffffffffffffffffffffffffffffffffffffff1663ad3915c8826040518263ffffffff1660e01b81526004016200026d919062000b92565b600060405180830381600087803b1580156200028857600080fd5b505af11580156200029d573d6000803e3d6000fd5b50505050600760009054906101000a900473ffffffffffffffffffffffffffffffffffffffff1673ffffffffffffffffffffffffffffffffffffffff166339255d5b600860009054906101000a900473ffffffffffffffffffffffffffffffffffffffff1663d787840a60e01b600660019054906101000a900473ffffffffffffffffffffffffffffffffffffffff1660008067ffffffffffffffff811180156200034757600080fd5b506040519080825280601f01601f1916602001820160405280156200037b5781602001600182028036833780820191505090505b50604051602401620003909392919062000b0a565b604051602081830303815290604052907bffffffffffffffffffffffffffffffffffffffffffffffffffffffff19166020820180517bffffffffffffffffffffffffffffffffffffffffffffffffffffffff8381831617835250505050600067ffffffffffffffff811180156200040657600080fd5b506040519080825280601f01601f1916602001820160405280156200043a5781602001600182028036833780820191505090505b506040518463ffffffff1660e01b81526004016200045b9392919062000abf565b600060405180830381600087803b1580156200047657600080fd5b505af11580156200048b573d6000803e3d6000fd5b505050506040513d6000823e3d601f19601f82011682018060405250810190620004b6919062000897565b50620004c833620004ee60201b60201c565b620004da6000620006ad60201b60201c565b50505050505062000de7565b600033905090565b620004fe620004e660201b60201c565b73ffffffffffffffffffffffffffffffffffffffff1662000524620006cb60201b60201c565b73ffffffffffffffffffffffffffffffffffffffff16146200057d576040517f08c379a0000000000000000000000000000000000000000000000000000000008152600401620005749062000b70565b60405180910390fd5b600073ffffffffffffffffffffffffffffffffffffffff168173ffffffffffffffffffffffffffffffffffffffff161415620005f0576040517f08c379a0000000000000000000000000000000000000000000000000000000008152600401620005e79062000b4e565b60405180910390fd5b8073ffffffffffffffffffffffffffffffffffffffff1660008054906101000a900473ffffffffffffffffffffffffffffffffffffffff1673ffffffffffffffffffffffffffffffffffffffff167f8be0079c531659141344cd1fd0a4f28419497f9722a3daafe3b4186f6b6457e060405160405180910390a3806000806101000a81548173ffffffffffffffffffffffffffffffffffffffff021916908373ffffffffffffffffffffffffffffffffffffffff16021790555050565b80600660006101000a81548160ff021916908360ff16021790555050565b60008060009054906101000a900473ffffffffffffffffffffffffffffffffffffffff16905090565b828054600181600116156101000203166002900490600052602060002090601f016020900481019282601f106200073757805160ff191683800117855562000768565b8280016001018555821562000768579182015b82811115620007675782518255916020019190600101906200074a565b5b5090506200077791906200077b565b5090565b5b80821115620007965760008160009055506001016200077c565b5090565b600082601f830112620007ac57600080fd5b8151620007c3620007bd8262000be3565b62000baf565b91508082526020830160208301858383011115620007e057600080fd5b620007ed83828462000d50565b50505092915050565b600081519050620008078162000d99565b92915050565b6000815190506200081e8162000db3565b92915050565b600081519050620008358162000dcd565b92915050565b600082601f8301126200084d57600080fd5b8151620008646200085e8262000c16565b62000baf565b915080825260208301602083018583830111156200088157600080fd5b6200088e83828462000d50565b50505092915050565b600060208284031215620008aa57600080fd5b600082015167ffffffffffffffff811115620008c557600080fd5b620008d3848285016200079a565b91505092915050565b600080600080600060a08688031215620008f557600080fd5b600086015167ffffffffffffffff8111156200091057600080fd5b6200091e888289016200083b565b955050602086015167ffffffffffffffff8111156200093c57600080fd5b6200094a888289016200083b565b94505060406200095d888289016200080d565b9350506060620009708882890162000824565b92505060806200098388828901620007f6565b9150509295509295909350565b60006200099d8262000c49565b620009a9818562000c54565b9350620009bb81856020860162000d50565b620009c68162000d88565b840191505092915050565b620009dc8162000d00565b82525050565b620009ed8162000d28565b82525050565b600062000a0260268362000c65565b91507f4f776e61626c653a206e6577206f776e657220697320746865207a65726f206160008301527f64647265737300000000000000000000000000000000000000000000000000006020830152604082019050919050565b600062000a6a60208362000c65565b91507f4f776e61626c653a2063616c6c6572206973206e6f7420746865206f776e65726000830152602082019050919050565b62000aa88162000ce6565b82525050565b62000ab98162000cf0565b82525050565b600060608201905062000ad66000830186620009d1565b818103602083015262000aea818562000990565b9050818103604083015262000b00818462000990565b9050949350505050565b600060608201905062000b216000830186620009e2565b62000b30602083018562000aae565b818103604083015262000b44818462000990565b9050949350505050565b6000602082019050818103600083015262000b6981620009f3565b9050919050565b6000602082019050818103600083015262000b8b8162000a5b565b9050919050565b600060208201905062000ba9600083018462000a9d565b92915050565b6000604051905081810181811067ffffffffffffffff8211171562000bd95762000bd862000d86565b5b8060405250919050565b600067ffffffffffffffff82111562000c015762000c0062000d86565b5b601f19601f8301169050602081019050919050565b600067ffffffffffffffff82111562000c345762000c3362000d86565b5b601f19601f8301169050602081019050919050565b600081519050919050565b600082825260208201905092915050565b600082825260208201905092915050565b600062000c838262000cc6565b9050919050565b600062000c978262000c76565b9050919050565b600062000cab8262000c76565b9050919050565b600062000cbf8262000c76565b9050919050565b600073ffffffffffffffffffffffffffffffffffffffff82169050919050565b6000819050919050565b600063ffffffff82169050919050565b600062000d0d8262000d14565b9050919050565b600062000d218262000cc6565b9050919050565b600062000d358262000d3c565b9050919050565b600062000d498262000cc6565b9050919050565b60005b8381101562000d7057808201518184015260208101905062000d53565b8381111562000d80576000848401525b50505050565bfe5b6000601f19601f8301169050919050565b62000da48162000c8a565b811462000db057600080fd5b50565b62000dbe8162000c9e565b811462000dca57600080fd5b50565b62000dd88162000cb2565b811462000de457600080fd5b50565b613aed8062000df76000396000f3fe608060405234801561001057600080fd5b50600436106101585760003560e01c8063867904b4116100c357806395d89b411161007c57806395d89b4114610415578063a457c2d714610433578063a9059cbb14610463578063d86ed3e514610493578063dd62ed3e146104c3578063f2fde38b146104f357610158565b8063867904b414610341578063884d1f401461035d5780638c7f09591461038d5780638da5cb5b146103ab578063915e3364146103c957806391c05b0b146103f957610158565b8063313ce56711610115578063313ce56714610259578063395093511461027757806353c11f99146102a75780635f9e7d77146102d757806370a0823114610307578063715018a61461033757610158565b806306fdde031461015d578063095ea7b31461017b57806318160ddd146101ab578063230dbd29146101c957806323b872dd146101f957806330d9c91514610229575b600080fd5b61016561050f565b6040516101729190613519565b60405180910390f35b61019560048036038101906101909190612a4b565b6105b1565b6040516101a2919061335f565b60405180910390f35b6101b36105cf565b6040516101c091906136db565b60405180910390f35b6101e360048036038101906101de9190612c18565b6105d9565b6040516101f0919061339e565b60405180910390f35b610213600480360381019061020e91906129fc565b61063b565b604051610220919061335f565b60405180910390f35b610243600480360381019061023e9190612b68565b610714565b604051610250919061339e565b60405180910390f35b61026161088f565b60405161026e9190613711565b60405180910390f35b610291600480360381019061028c9190612a4b565b6108a6565b60405161029e919061335f565b60405180910390f35b6102c160048036038101906102bc9190612c18565b610959565b6040516102ce919061339e565b60405180910390f35b6102f160048036038101906102ec9190612b68565b610996565b6040516102fe919061339e565b60405180910390f35b610321600480360381019061031c9190612997565b6109d3565b60405161032e91906136db565b60405180910390f35b61033f610a1c565b005b61035b60048036038101906103569190612a4b565b610b56565b005b61037760048036038101906103729190612b68565b610dff565b604051610384919061339e565b60405180910390f35b610395610f7a565b6040516103a291906136f6565b60405180910390f35b6103b3610f7f565b6040516103c0919061330d565b60405180910390f35b6103e360048036038101906103de9190612997565b610fa8565b6040516103f0919061335f565b60405180910390f35b610413600480360381019061040e9190612d38565b610fc8565b005b61041d6113e6565b60405161042a9190613519565b60405180910390f35b61044d60048036038101906104489190612a4b565b611488565b60405161045a919061335f565b60405180910390f35b61047d60048036038101906104789190612a4b565b611555565b60405161048a919061335f565b60405180910390f35b6104ad60048036038101906104a89190612c18565b611573565b6040516104ba919061339e565b60405180910390f35b6104dd60048036038101906104d891906129c0565b6115d5565b6040516104ea91906136db565b60405180910390f35b61050d60048036038101906105089190612997565b61165c565b005b606060048054600181600116156101000203166002900480601f0160208091040260200160405190810160405280929190818152602001828054600181600116156101000203166002900480156105a75780601f1061057c576101008083540402835291602001916105a7565b820191906000526020600020905b81548152906001019060200180831161058a57829003601f168201915b5050505050905090565b60006105c56105be611805565b848461180d565b6001905092915050565b6000600354905090565b60606105e78a84848b6119d8565b82828080601f016020809104026020016040519081016040528093929190818152602001838380828437600081840152601f19601f8201169050808301925050505050505090509998505050505050505050565b6000610648848484611cdb565b61070984610654611805565b61070485604051806060016040528060288152602001613a6b60289139600260008b73ffffffffffffffffffffffffffffffffffffffff1673ffffffffffffffffffffffffffffffffffffffff16815260200190815260200160002060006106ba611805565b73ffffffffffffffffffffffffffffffffffffffff1673ffffffffffffffffffffffffffffffffffffffff168152602001908152602001600020546121299092919063ffffffff16565b61180d565b600190509392505050565b6060600660019054906101000a900473ffffffffffffffffffffffffffffffffffffffff1673ffffffffffffffffffffffffffffffffffffffff168873ffffffffffffffffffffffffffffffffffffffff16146107a6576040517f08c379a000000000000000000000000000000000000000000000000000000000815260040161079d906135fb565b60405180910390fd5b600860009054906101000a900473ffffffffffffffffffffffffffffffffffffffff1673ffffffffffffffffffffffffffffffffffffffff168773ffffffffffffffffffffffffffffffffffffffff1614610836576040517f08c379a000000000000000000000000000000000000000000000000000000000815260040161082d906135db565b60405180910390fd5b600067ffffffffffffffff8111801561084e57600080fd5b506040519080825280601f01601f1916602001820160405280156108815781602001600182028036833780820191505090505b509050979650505050505050565b6000600660009054906101000a900460ff16905090565b600061094f6108b3611805565b8461094a85600260006108c4611805565b73ffffffffffffffffffffffffffffffffffffffff1673ffffffffffffffffffffffffffffffffffffffff16815260200190815260200160002060008973ffffffffffffffffffffffffffffffffffffffff1673ffffffffffffffffffffffffffffffffffffffff1681526020019081526020016000205461217e90919063ffffffff16565b61180d565b6001905092915050565b60606040517f08c379a000000000000000000000000000000000000000000000000000000000815260040161098d9061369b565b60405180910390fd5b60606040517f08c379a00000000000000000000000000000000000000000000000000000000081526004016109ca906135bb565b60405180910390fd5b6000600160008373ffffffffffffffffffffffffffffffffffffffff1673ffffffffffffffffffffffffffffffffffffffff168152602001908152602001600020549050919050565b610a24611805565b73ffffffffffffffffffffffffffffffffffffffff16610a42610f7f565b73ffffffffffffffffffffffffffffffffffffffff1614610a98576040517f08c379a0000000000000000000000000000000000000000000000000000000008152600401610a8f9061361b565b60405180910390fd5b600073ffffffffffffffffffffffffffffffffffffffff1660008054906101000a900473ffffffffffffffffffffffffffffffffffffffff1673ffffffffffffffffffffffffffffffffffffffff167f8be0079c531659141344cd1fd0a4f28419497f9722a3daafe3b4186f6b6457e060405160405180910390a360008060006101000a81548173ffffffffffffffffffffffffffffffffffffffff021916908373ffffffffffffffffffffffffffffffffffffffff160217905550565b610b5e611805565b73ffffffffffffffffffffffffffffffffffffffff16610b7c610f7f565b73ffffffffffffffffffffffffffffffffffffffff1614610bd2576040517f08c379a0000000000000000000000000000000000000000000000000000000008152600401610bc99061361b565b60405180910390fd5b6000610bdd836109d3565b9050610be983836121d3565b600760009054906101000a900473ffffffffffffffffffffffffffffffffffffffff1673ffffffffffffffffffffffffffffffffffffffff166339255d5b600860009054906101000a900473ffffffffffffffffffffffffffffffffffffffff1663232d2b5860e01b600660019054906101000a900473ffffffffffffffffffffffffffffffffffffffff16600088888801600067ffffffffffffffff81118015610c9357600080fd5b506040519080825280601f01601f191660200182016040528015610cc65781602001600182028036833780820191505090505b50604051602401610cdb959493929190613473565b604051602081830303815290604052907bffffffffffffffffffffffffffffffffffffffffffffffffffffffff19166020820180517bffffffffffffffffffffffffffffffffffffffffffffffffffffffff8381831617835250505050600067ffffffffffffffff81118015610d5057600080fd5b506040519080825280601f01601f191660200182016040528015610d835781602001600182028036833780820191505090505b506040518463ffffffff1660e01b8152600401610da2939291906133c0565b600060405180830381600087803b158015610dbc57600080fd5b505af1158015610dd0573d6000803e3d6000fd5b505050506040513d6000823e3d601f19601f82011682018060405250810190610df99190612b27565b50505050565b6060600660019054906101000a900473ffffffffffffffffffffffffffffffffffffffff1673ffffffffffffffffffffffffffffffffffffffff168873ffffffffffffffffffffffffffffffffffffffff1614610e91576040517f08c379a0000000000000000000000000000000000000000000000000000000008152600401610e88906135fb565b60405180910390fd5b600860009054906101000a900473ffffffffffffffffffffffffffffffffffffffff1673ffffffffffffffffffffffffffffffffffffffff168773ffffffffffffffffffffffffffffffffffffffff1614610f21576040517f08c379a0000000000000000000000000000000000000000000000000000000008152600401610f18906135db565b60405180910390fd5b600067ffffffffffffffff81118015610f3957600080fd5b506040519080825280601f01601f191660200182016040528015610f6c5781602001600182028036833780820191505090505b509050979650505050505050565b600081565b60008060009054906101000a900473ffffffffffffffffffffffffffffffffffffffff16905090565b60096020528060005260406000206000915054906101000a900460ff1681565b610fd0611805565b73ffffffffffffffffffffffffffffffffffffffff16610fee610f7f565b73ffffffffffffffffffffffffffffffffffffffff1614611044576040517f08c379a000000000000000000000000000000000000000000000000000000000815260040161103b9061361b565b60405180910390fd5b6000600860009054906101000a900473ffffffffffffffffffffffffffffffffffffffff1673ffffffffffffffffffffffffffffffffffffffff1663899baaec600660019054906101000a900473ffffffffffffffffffffffffffffffffffffffff16306000866040518563ffffffff1660e01b81526004016110ca9493929190613405565b604080518083038186803b1580156110e157600080fd5b505afa1580156110f5573d6000803e3d6000fd5b505050506040513d601f19601f820116820180604052508101906111199190612d61565b509050600660019054906101000a900473ffffffffffffffffffffffffffffffffffffffff1673ffffffffffffffffffffffffffffffffffffffff166323b872dd611162610f7f565b30846040518463ffffffff1660e01b815260040161118293929190613328565b602060405180830381600087803b15801561119c57600080fd5b505af11580156111b0573d6000803e3d6000fd5b505050506040513d601f19601f820116820180604052508101906111d49190612afe565b50600760009054906101000a900473ffffffffffffffffffffffffffffffffffffffff1673ffffffffffffffffffffffffffffffffffffffff166339255d5b600860009054906101000a900473ffffffffffffffffffffffffffffffffffffffff1663b96731c260e01b600660019054906101000a900473ffffffffffffffffffffffffffffffffffffffff16600086600067ffffffffffffffff8111801561127c57600080fd5b506040519080825280601f01601f1916602001820160405280156112af5781602001600182028036833780820191505090505b506040516024016112c394939291906134cd565b604051602081830303815290604052907bffffffffffffffffffffffffffffffffffffffffffffffffffffffff19166020820180517bffffffffffffffffffffffffffffffffffffffffffffffffffffffff8381831617835250505050600067ffffffffffffffff8111801561133857600080fd5b506040519080825280601f01601f19166020018201604052801561136b5781602001600182028036833780820191505090505b506040518463ffffffff1660e01b815260040161138a939291906133c0565b600060405180830381600087803b1580156113a457600080fd5b505af11580156113b8573d6000803e3d6000fd5b505050506040513d6000823e3d601f19601f820116820180604052508101906113e19190612b27565b505050565b606060058054600181600116156101000203166002900480601f01602080910402602001604051908101604052809291908181526020018280546001816001161561010002031660029004801561147e5780601f106114535761010080835404028352916020019161147e565b820191906000526020600020905b81548152906001019060200180831161146157829003601f168201915b5050505050905090565b600061154b611495611805565b8461154685604051806060016040528060258152602001613a9360259139600260006114bf611805565b73ffffffffffffffffffffffffffffffffffffffff1673ffffffffffffffffffffffffffffffffffffffff16815260200190815260200160002060008a73ffffffffffffffffffffffffffffffffffffffff1673ffffffffffffffffffffffffffffffffffffffff168152602001908152602001600020546121299092919063ffffffff16565b61180d565b6001905092915050565b6000611569611562611805565b8484611cdb565b6001905092915050565b60606115818a84848b6119d8565b82828080601f016020809104026020016040519081016040528093929190818152602001838380828437600081840152601f19601f8201169050808301925050505050505090509998505050505050505050565b6000600260008473ffffffffffffffffffffffffffffffffffffffff1673ffffffffffffffffffffffffffffffffffffffff16815260200190815260200160002060008373ffffffffffffffffffffffffffffffffffffffff1673ffffffffffffffffffffffffffffffffffffffff16815260200190815260200160002054905092915050565b611664611805565b73ffffffffffffffffffffffffffffffffffffffff16611682610f7f565b73ffffffffffffffffffffffffffffffffffffffff16146116d8576040517f08c379a00000000000000000000000000000000000000000000000000000000081526004016116cf9061361b565b60405180910390fd5b600073ffffffffffffffffffffffffffffffffffffffff168173ffffffffffffffffffffffffffffffffffffffff161415611748576040517f08c379a000000000000000000000000000000000000000000000000000000000815260040161173f9061355b565b60405180910390fd5b8073ffffffffffffffffffffffffffffffffffffffff1660008054906101000a900473ffffffffffffffffffffffffffffffffffffffff1673ffffffffffffffffffffffffffffffffffffffff167f8be0079c531659141344cd1fd0a4f28419497f9722a3daafe3b4186f6b6457e060405160405180910390a3806000806101000a81548173ffffffffffffffffffffffffffffffffffffffff021916908373ffffffffffffffffffffffffffffffffffffffff16021790555050565b600033905090565b600073ffffffffffffffffffffffffffffffffffffffff168373ffffffffffffffffffffffffffffffffffffffff16141561187d576040517f08c379a00000000000000000000000000000000000000000000000000000000081526004016118749061367b565b60405180910390fd5b600073ffffffffffffffffffffffffffffffffffffffff168273ffffffffffffffffffffffffffffffffffffffff1614156118ed576040517f08c379a00000000000000000000000000000000000000000000000000000000081526004016118e49061357b565b60405180910390fd5b80600260008573ffffffffffffffffffffffffffffffffffffffff1673ffffffffffffffffffffffffffffffffffffffff16815260200190815260200160002060008473ffffffffffffffffffffffffffffffffffffffff1673ffffffffffffffffffffffffffffffffffffffff168152602001908152602001600020819055508173ffffffffffffffffffffffffffffffffffffffff168373ffffffffffffffffffffffffffffffffffffffff167f8c5be1e5ebec7d5bd14f71427d1e84f3dd0314c0f7b2291e5b200ac8c7c3b925836040516119cb91906136db565b60405180910390a3505050565b6119e0612607565b600760009054906101000a900473ffffffffffffffffffffffffffffffffffffffff1673ffffffffffffffffffffffffffffffffffffffff16633f6c923a85856040518363ffffffff1660e01b8152600401611a3d92919061337a565b60006040518083038186803b158015611a5557600080fd5b505afa158015611a69573d6000803e3d6000fd5b505050506040513d6000823e3d601f19601f82011682018060405250810190611a929190612cf7565b905063acf4a6c260e01b7bffffffffffffffffffffffffffffffffffffffffffffffffffffffff191681608001517bffffffffffffffffffffffffffffffffffffffffffffffffffffffff19161415611cd4576000806000806000600860009054906101000a900473ffffffffffffffffffffffffffffffffffffffff1673ffffffffffffffffffffffffffffffffffffffff1663cd7245c58b896040518363ffffffff1660e01b8152600401611b4a92919061344a565b60a06040518083038186803b158015611b6257600080fd5b505afa158015611b76573d6000803e3d6000fd5b505050506040513d601f19601f82011682018060405250810190611b9a9190612a87565b80955081965082975083985084995050505050503073ffffffffffffffffffffffffffffffffffffffff168573ffffffffffffffffffffffffffffffffffffffff1614611c1c576040517f08c379a0000000000000000000000000000000000000000000000000000000008152600401611c139061363b565b60405180910390fd5b600063ffffffff168463ffffffff1614611c6b576040517f08c379a0000000000000000000000000000000000000000000000000000000008152600401611c629061363b565b60405180910390fd5b8215611cce57600160096000886060015173ffffffffffffffffffffffffffffffffffffffff1673ffffffffffffffffffffffffffffffffffffffff16815260200190815260200160002060006101000a81548160ff0219169083151502179055505b50505050505b5050505050565b6000611ce6846109d3565b90506000611cf3846109d3565b9050611d00858585612369565b600760009054906101000a900473ffffffffffffffffffffffffffffffffffffffff1673ffffffffffffffffffffffffffffffffffffffff166339255d5b600860009054906101000a900473ffffffffffffffffffffffffffffffffffffffff1663232d2b5860e01b600660019054906101000a900473ffffffffffffffffffffffffffffffffffffffff1660008a898903600067ffffffffffffffff81118015611daa57600080fd5b506040519080825280601f01601f191660200182016040528015611ddd5781602001600182028036833780820191505090505b50604051602401611df2959493929190613473565b604051602081830303815290604052907bffffffffffffffffffffffffffffffffffffffffffffffffffffffff19166020820180517bffffffffffffffffffffffffffffffffffffffffffffffffffffffff8381831617835250505050600067ffffffffffffffff81118015611e6757600080fd5b506040519080825280601f01601f191660200182016040528015611e9a5781602001600182028036833780820191505090505b506040518463ffffffff1660e01b8152600401611eb9939291906133c0565b600060405180830381600087803b158015611ed357600080fd5b505af1158015611ee7573d6000803e3d6000fd5b505050506040513d6000823e3d601f19601f82011682018060405250810190611f109190612b27565b50600760009054906101000a900473ffffffffffffffffffffffffffffffffffffffff1673ffffffffffffffffffffffffffffffffffffffff166339255d5b600860009054906101000a900473ffffffffffffffffffffffffffffffffffffffff1663232d2b5860e01b600660019054906101000a900473ffffffffffffffffffffffffffffffffffffffff16600089898801600067ffffffffffffffff81118015611fbb57600080fd5b506040519080825280601f01601f191660200182016040528015611fee5781602001600182028036833780820191505090505b50604051602401612003959493929190613473565b604051602081830303815290604052907bffffffffffffffffffffffffffffffffffffffffffffffffffffffff19166020820180517bffffffffffffffffffffffffffffffffffffffffffffffffffffffff8381831617835250505050600067ffffffffffffffff8111801561207857600080fd5b506040519080825280601f01601f1916602001820160405280156120ab5781602001600182028036833780820191505090505b506040518463ffffffff1660e01b81526004016120ca939291906133c0565b600060405180830381600087803b1580156120e457600080fd5b505af11580156120f8573d6000803e3d6000fd5b505050506040513d6000823e3d601f19601f820116820180604052508101906121219190612b27565b505050505050565b6000838311158290612171576040517f08c379a00000000000000000000000000000000000000000000000000000000081526004016121689190613519565b60405180910390fd5b5082840390509392505050565b6000808284019050838110156121c9576040517f08c379a00000000000000000000000000000000000000000000000000000000081526004016121c09061359b565b60405180910390fd5b8091505092915050565b600073ffffffffffffffffffffffffffffffffffffffff168273ffffffffffffffffffffffffffffffffffffffff161415612243576040517f08c379a000000000000000000000000000000000000000000000000000000000815260040161223a906136bb565b60405180910390fd5b61224f60008383612602565b6122648160035461217e90919063ffffffff16565b6003819055506122bc81600160008573ffffffffffffffffffffffffffffffffffffffff1673ffffffffffffffffffffffffffffffffffffffff1681526020019081526020016000205461217e90919063ffffffff16565b600160008473ffffffffffffffffffffffffffffffffffffffff1673ffffffffffffffffffffffffffffffffffffffff168152602001908152602001600020819055508173ffffffffffffffffffffffffffffffffffffffff16600073ffffffffffffffffffffffffffffffffffffffff167fddf252ad1be2c89b69c2b068fc378daa952ba7f163c4a11628f55a4df523b3ef8360405161235d91906136db565b60405180910390a35050565b600073ffffffffffffffffffffffffffffffffffffffff168373ffffffffffffffffffffffffffffffffffffffff1614156123d9576040517f08c379a00000000000000000000000000000000000000000000000000000000081526004016123d09061365b565b60405180910390fd5b600073ffffffffffffffffffffffffffffffffffffffff168273ffffffffffffffffffffffffffffffffffffffff161415612449576040517f08c379a00000000000000000000000000000000000000000000000000000000081526004016124409061353b565b60405180910390fd5b612454838383612602565b6124c081604051806060016040528060268152602001613a4560269139600160008773ffffffffffffffffffffffffffffffffffffffff1673ffffffffffffffffffffffffffffffffffffffff168152602001908152602001600020546121299092919063ffffffff16565b600160008573ffffffffffffffffffffffffffffffffffffffff1673ffffffffffffffffffffffffffffffffffffffff1681526020019081526020016000208190555061255581600160008573ffffffffffffffffffffffffffffffffffffffff1673ffffffffffffffffffffffffffffffffffffffff1681526020019081526020016000205461217e90919063ffffffff16565b600160008473ffffffffffffffffffffffffffffffffffffffff1673ffffffffffffffffffffffffffffffffffffffff168152602001908152602001600020819055508173ffffffffffffffffffffffffffffffffffffffff168373ffffffffffffffffffffffffffffffffffffffff167fddf252ad1be2c89b69c2b068fc378daa952ba7f163c4a11628f55a4df523b3ef836040516125f591906136db565b60405180910390a3505050565b505050565b604051806101600160405280600060ff168152602001600060ff16815260200160008152602001600073ffffffffffffffffffffffffffffffffffffffff16815260200160007bffffffffffffffffffffffffffffffffffffffffffffffffffffffff1916815260200160608152602001600081526020016000815260200160008152602001600073ffffffffffffffffffffffffffffffffffffffff168152602001600073ffffffffffffffffffffffffffffffffffffffff1681525090565b6000813590506126d781613947565b92915050565b6000815190506126ec81613947565b92915050565b6000815190506127018161395e565b92915050565b60008135905061271681613975565b92915050565b60008151905061272b8161398c565b92915050565b60008083601f84011261274357600080fd5b8235905067ffffffffffffffff81111561275c57600080fd5b60208301915083600182028301111561277457600080fd5b9250929050565b600082601f83011261278c57600080fd5b815161279f61279a8261375d565b61372c565b915080825260208301602083018583830111156127bb57600080fd5b6127c6838284613901565b50505092915050565b6000813590506127de816139a3565b92915050565b6000815190506127f3816139ba565b92915050565b600081519050612808816139d1565b92915050565b6000610160828403121561282157600080fd5b61282c61016061372c565b9050600061283c84828501612982565b600083015250602061285084828501612982565b602083015250604061286484828501612958565b6040830152506060612878848285016126dd565b606083015250608061288c8482850161271c565b60808301525060a082015167ffffffffffffffff8111156128ac57600080fd5b6128b88482850161277b565b60a08301525060c06128cc84828501612958565b60c08301525060e06128e084828501612958565b60e0830152506101006128f5848285016127f9565b6101008301525061012061290b848285016126dd565b61012083015250610140612921848285016127e4565b6101408301525092915050565b60008151905061293d816139e8565b92915050565b600081359050612952816139ff565b92915050565b600081519050612967816139ff565b92915050565b60008151905061297c81613a16565b92915050565b60008151905061299181613a2d565b92915050565b6000602082840312156129a957600080fd5b60006129b7848285016126c8565b91505092915050565b600080604083850312156129d357600080fd5b60006129e1858286016126c8565b92505060206129f2858286016126c8565b9150509250929050565b600080600060608486031215612a1157600080fd5b6000612a1f868287016126c8565b9350506020612a30868287016126c8565b9250506040612a4186828701612943565b9150509250925092565b60008060408385031215612a5e57600080fd5b6000612a6c858286016126c8565b9250506020612a7d85828601612943565b9150509250929050565b600080600080600060a08688031215612a9f57600080fd5b6000612aad888289016126dd565b9550506020612abe8882890161296d565b9450506040612acf888289016126f2565b9350506060612ae08882890161292e565b9250506080612af188828901612958565b9150509295509295909350565b600060208284031215612b1057600080fd5b6000612b1e848285016126f2565b91505092915050565b600060208284031215612b3957600080fd5b600082015167ffffffffffffffff811115612b5357600080fd5b612b5f8482850161277b565b91505092915050565b600080600080600080600060a0888a031215612b8357600080fd5b6000612b918a828b016127cf565b9750506020612ba28a828b016126c8565b9650506040612bb38a828b01612707565b955050606088013567ffffffffffffffff811115612bd057600080fd5b612bdc8a828b01612731565b9450945050608088013567ffffffffffffffff811115612bfb57600080fd5b612c078a828b01612731565b925092505092959891949750929550565b600080600080600080600080600060c08a8c031215612c3657600080fd5b6000612c448c828d016127cf565b9950506020612c558c828d016126c8565b9850506040612c668c828d01612707565b97505060608a013567ffffffffffffffff811115612c8357600080fd5b612c8f8c828d01612731565b965096505060808a013567ffffffffffffffff811115612cae57600080fd5b612cba8c828d01612731565b945094505060a08a013567ffffffffffffffff811115612cd957600080fd5b612ce58c828d01612731565b92509250509295985092959850929598565b600060208284031215612d0957600080fd5b600082015167ffffffffffffffff811115612d2357600080fd5b612d2f8482850161280e565b91505092915050565b600060208284031215612d4a57600080fd5b6000612d5884828501612943565b91505092915050565b60008060408385031215612d7457600080fd5b6000612d8285828601612958565b9250506020612d938582860161292e565b9150509250929050565b612da6816137c5565b82525050565b612db5816137d7565b82525050565b612dc4816137e3565b82525050565b6000612dd683856137a3565b9350612de38385846138f2565b612dec83613936565b840190509392505050565b6000612e028261378d565b612e0c81856137a3565b9350612e1c818560208601613901565b612e2581613936565b840191505092915050565b612e39816138aa565b82525050565b612e48816138ce565b82525050565b6000612e5982613798565b612e6381856137b4565b9350612e73818560208601613901565b612e7c81613936565b840191505092915050565b6000612e946023836137b4565b91507f45524332303a207472616e7366657220746f20746865207a65726f206164647260008301527f65737300000000000000000000000000000000000000000000000000000000006020830152604082019050919050565b6000612efa6026836137b4565b91507f4f776e61626c653a206e6577206f776e657220697320746865207a65726f206160008301527f64647265737300000000000000000000000000000000000000000000000000006020830152604082019050919050565b6000612f606022836137b4565b91507f45524332303a20617070726f766520746f20746865207a65726f20616464726560008301527f73730000000000000000000000000000000000000000000000000000000000006020830152604082019050919050565b6000612fc6601b836137b4565b91507f536166654d6174683a206164646974696f6e206f766572666c6f7700000000006000830152602082019050919050565b60006130066033836137b4565b91507f556e737570706f727465642063616c6c6261636b202d20204265666f7265204160008301527f677265656d656e74205465726d696e61746564000000000000000000000000006020830152604082019050919050565b600061306c601a836137b4565b91507f4452543a20556e737570706f727465642061677265656d656e740000000000006000830152602082019050919050565b60006130ac601b836137b4565b91507f4452543a20556e737570706f72746564206361736820746f6b656e00000000006000830152602082019050919050565b60006130ec6020836137b4565b91507f4f776e61626c653a2063616c6c6572206973206e6f7420746865206f776e65726000830152602082019050919050565b600061312c6017836137b4565b91507f4452543a207075626c6973686572206d69736d617463680000000000000000006000830152602082019050919050565b600061316c6025836137b4565b91507f45524332303a207472616e736665722066726f6d20746865207a65726f20616460008301527f64726573730000000000000000000000000000000000000000000000000000006020830152604082019050919050565b60006131d26024836137b4565b91507f45524332303a20617070726f76652066726f6d20746865207a65726f2061646460008301527f72657373000000000000000000000000000000000000000000000000000000006020830152604082019050919050565b60006132386031836137b4565b91507f556e737570706f727465642063616c6c6261636b202d2041667465722041677260008301527f65656d656e74205465726d696e617465640000000000000000000000000000006020830152604082019050919050565b600061329e601f836137b4565b91507f45524332303a206d696e7420746f20746865207a65726f2061646472657373006000830152602082019050919050565b6132da81613847565b82525050565b6132e981613883565b82525050565b6132f88161388d565b82525050565b6133078161389d565b82525050565b60006020820190506133226000830184612d9d565b92915050565b600060608201905061333d6000830186612d9d565b61334a6020830185612d9d565b61335760408301846132e0565b949350505050565b60006020820190506133746000830184612dac565b92915050565b60006020820190508181036000830152613395818486612dca565b90509392505050565b600060208201905081810360008301526133b88184612df7565b905092915050565b60006060820190506133d56000830186612e30565b81810360208301526133e78185612df7565b905081810360408301526133fb8184612df7565b9050949350505050565b600060808201905061341a6000830187612e3f565b6134276020830186612d9d565b61343460408301856132ef565b61344160608301846132e0565b95945050505050565b600060408201905061345f6000830185612e3f565b61346c6020830184612dbb565b9392505050565b600060a0820190506134886000830188612e3f565b61349560208301876132ef565b6134a26040830186612d9d565b6134af60608301856132d1565b81810360808301526134c18184612df7565b90509695505050505050565b60006080820190506134e26000830187612e3f565b6134ef60208301866132ef565b6134fc60408301856132e0565b818103606083015261350e8184612df7565b905095945050505050565b600060208201905081810360008301526135338184612e4e565b905092915050565b6000602082019050818103600083015261355481612e87565b9050919050565b6000602082019050818103600083015261357481612eed565b9050919050565b6000602082019050818103600083015261359481612f53565b9050919050565b600060208201905081810360008301526135b481612fb9565b9050919050565b600060208201905081810360008301526135d481612ff9565b9050919050565b600060208201905081810360008301526135f48161305f565b9050919050565b600060208201905081810360008301526136148161309f565b9050919050565b60006020820190508181036000830152613634816130df565b9050919050565b600060208201905081810360008301526136548161311f565b9050919050565b600060208201905081810360008301526136748161315f565b9050919050565b60006020820190508181036000830152613694816131c5565b9050919050565b600060208201905081810360008301526136b48161322b565b9050919050565b600060208201905081810360008301526136d481613291565b9050919050565b60006020820190506136f060008301846132e0565b92915050565b600060208201905061370b60008301846132ef565b92915050565b600060208201905061372660008301846132fe565b92915050565b6000604051905081810181811067ffffffffffffffff8211171561375357613752613934565b5b8060405250919050565b600067ffffffffffffffff82111561377857613777613934565b5b601f19601f8301169050602081019050919050565b600081519050919050565b600081519050919050565b600082825260208201905092915050565b600082825260208201905092915050565b60006137d082613863565b9050919050565b60008115159050919050565b6000819050919050565b60007fffffffff0000000000000000000000000000000000000000000000000000000082169050919050565b6000613824826137c5565b9050919050565b6000613836826137c5565b9050919050565b6000819050919050565b60006fffffffffffffffffffffffffffffffff82169050919050565b600073ffffffffffffffffffffffffffffffffffffffff82169050919050565b6000819050919050565b600063ffffffff82169050919050565b600060ff82169050919050565b60006138b5826138bc565b9050919050565b60006138c782613863565b9050919050565b60006138d9826138e0565b9050919050565b60006138eb82613863565b9050919050565b82818337600083830152505050565b60005b8381101561391f578082015181840152602081019050613904565b8381111561392e576000848401525b50505050565bfe5b6000601f19601f8301169050919050565b613950816137c5565b811461395b57600080fd5b50565b613967816137d7565b811461397257600080fd5b50565b61397e816137e3565b811461398957600080fd5b50565b613995816137ed565b81146139a057600080fd5b50565b6139ac81613819565b81146139b757600080fd5b50565b6139c38161382b565b81146139ce57600080fd5b50565b6139da8161383d565b81146139e557600080fd5b50565b6139f181613847565b81146139fc57600080fd5b50565b613a0881613883565b8114613a1357600080fd5b50565b613a1f8161388d565b8114613a2a57600080fd5b50565b613a368161389d565b8114613a4157600080fd5b5056fe45524332303a207472616e7366657220616d6f756e7420657863656564732062616c616e636545524332303a207472616e7366657220616d6f756e74206578636565647320616c6c6f77616e636545524332303a2064656372656173656420616c6c6f77616e63652062656c6f77207a65726fa2646970667358221220b12e09dec3a8f13cea4d2224ccfe2bd0a8072adee93f6cf30741479601888fcc64736f6c63430007030033",
  "immutableReferences": {},
  "source": "// SPDX-License-Identifier: MIT\npragma solidity 0.7.3;\npragma experimental ABIEncoderV2;\n\n\nimport {\n    ISuperfluid,\n    ISuperToken,\n    SuperAppBase,\n    SuperAppDefinitions\n} from \"@superfluid-finance/ethereum-contracts/contracts/apps/SuperAppBase.sol\";\nimport {\n    IInstantDistributionAgreementV1\n} from \"@superfluid-finance/ethereum-contracts/contracts/interfaces/agreements/IInstantDistributionAgreementV1.sol\";\n\nimport { Ownable } from \"@openzeppelin/contracts/access/Ownable.sol\";\nimport { ERC20 } from \"@openzeppelin/contracts/token/ERC20/ERC20.sol\";\n\n\n/**\n * The dividends rights token show cases two use cases\n * 1. Use Instant distribution agreement to distribute tokens to token holders.\n * 2. Use SuperApp framework to update `isSubscribing` when new subscription is approved by token holder.\n */\ncontract DividendRightsToken is\n    Ownable,\n    ERC20,\n    SuperAppBase\n{\n\n    uint32 public constant INDEX_ID = 0;\n\n    ISuperToken private _cashToken;\n    ISuperfluid private _host;\n    IInstantDistributionAgreementV1 private _ida;\n\n    // use callbacks to track approved subscriptions\n    mapping (address => bool) public isSubscribing;\n\n    constructor(\n        string memory name,\n        string memory symbol,\n        ISuperToken cashToken,\n        ISuperfluid host,\n        IInstantDistributionAgreementV1 ida)\n        ERC20(name, symbol)\n    {\n        _cashToken = cashToken;\n        _host = host;\n        _ida = ida;\n\n        uint256 configWord =\n            SuperAppDefinitions.APP_LEVEL_FINAL |\n            SuperAppDefinitions.BEFORE_AGREEMENT_TERMINATED_NOOP |\n            SuperAppDefinitions.AFTER_AGREEMENT_TERMINATED_NOOP;\n\n        _host.registerApp(configWord);\n\n        _host.callAgreement(\n            _ida,\n            abi.encodeWithSelector(\n                _ida.createIndex.selector,\n                _cashToken,\n                INDEX_ID,\n                new bytes(0) // placeholder ctx\n            ),\n            new bytes(0) // user data\n        );\n\n        transferOwnership(msg.sender);\n        _setupDecimals(0); // no decimals\n    }\n\n    function beforeAgreementCreated(\n        ISuperToken superToken,\n        address agreementClass,\n        bytes32 /* agreementId */,\n        bytes calldata /*agreementData*/,\n        bytes calldata /*ctx*/\n    )\n        external view override\n        returns (bytes memory data)\n    {\n        require(superToken == _cashToken, \"DRT: Unsupported cash token\");\n        require(agreementClass == address(_ida), \"DRT: Unsupported agreement\");\n        return new bytes(0);\n    }\n\n    function afterAgreementCreated(\n        ISuperToken superToken,\n        address /* agreementClass */,\n        bytes32 agreementId,\n        bytes calldata /*agreementData*/,\n        bytes calldata /*cbdata*/,\n        bytes calldata ctx\n    )\n        external override\n        returns(bytes memory newCtx)\n    {\n        _checkSubscription(superToken, ctx, agreementId);\n        newCtx = ctx;\n    }\n\n    function beforeAgreementUpdated(\n        ISuperToken superToken,\n        address agreementClass,\n        bytes32 /* agreementId */,\n        bytes calldata /*agreementData*/,\n        bytes calldata /*ctx*/\n    )\n        external view override\n        returns (bytes memory data)\n    {\n        require(superToken == _cashToken, \"DRT: Unsupported cash token\");\n        require(agreementClass == address(_ida), \"DRT: Unsupported agreement\");\n        return new bytes(0);\n    }\n\n    function afterAgreementUpdated(\n        ISuperToken superToken,\n        address /* agreementClass */,\n        bytes32 agreementId,\n        bytes calldata /*agreementData*/,\n        bytes calldata /*cbdata*/,\n        bytes calldata ctx\n    )\n        external override\n        returns(bytes memory newCtx)\n    {\n        _checkSubscription(superToken, ctx, agreementId);\n        newCtx = ctx;\n    }\n\n    function _checkSubscription(\n        ISuperToken superToken,\n        bytes calldata ctx,\n        bytes32 agreementId\n    )\n        private\n    {\n        ISuperfluid.Context memory context = _host.decodeCtx(ctx);\n        // only interested in the subscription approval callbacks\n        if (context.agreementSelector == IInstantDistributionAgreementV1.approveSubscription.selector) {\n            address publisher;\n            uint32 indexId;\n            bool approved;\n            uint128 units;\n            uint256 pendingDistribution;\n            (publisher, indexId, approved, units, pendingDistribution) =\n                _ida.getSubscriptionByID(superToken, agreementId);\n\n            // sanity checks for testing purpose\n            require(publisher == address(this), \"DRT: publisher mismatch\");\n            require(indexId == INDEX_ID, \"DRT: publisher mismatch\");\n\n            if (approved) {\n                isSubscribing[context.msgSender /* subscriber */] = true;\n            }\n        }\n    }\n\n    /// @dev Issue new `amount` of giths to `beneficiary`\n    function issue(address beneficiary, uint256 amount) external onlyOwner {\n        // then adjust beneficiary subscription units\n        uint256 currentAmount = balanceOf(beneficiary);\n\n        // first try to do ERC20 mint\n        ERC20._mint(beneficiary, amount);\n\n        _host.callAgreement(\n            _ida,\n            abi.encodeWithSelector(\n                _ida.updateSubscription.selector,\n                _cashToken,\n                INDEX_ID,\n                beneficiary,\n                uint128(currentAmount) + uint128(amount),\n                new bytes(0) // placeholder ctx\n            ),\n            new bytes(0) // user data\n        );\n    }\n\n    /// @dev Distribute `amount` of cash among all token holders\n    function distribute(uint256 cashAmount) external onlyOwner {\n        (uint256 actualCashAmount,) = _ida.calculateDistribution(\n            _cashToken,\n            address(this), INDEX_ID,\n            cashAmount);\n\n        _cashToken.transferFrom(owner(), address(this), actualCashAmount);\n\n        _host.callAgreement(\n            _ida,\n            abi.encodeWithSelector(\n                _ida.distribute.selector,\n                _cashToken,\n                INDEX_ID,\n                actualCashAmount,\n                new bytes(0) // placeholder ctx\n            ),\n            new bytes(0) // user data\n        );\n    }\n\n    /// @dev ERC20._transfer override\n    function _transfer(address sender, address recipient, uint256 amount) internal override {\n        uint128 senderUnits = uint128(ERC20.balanceOf(sender));\n        uint128 recipientUnits = uint128(ERC20.balanceOf(recipient));\n        // first try to do ERC20 transfer\n        ERC20._transfer(sender, recipient, amount);\n\n        _host.callAgreement(\n            _ida,\n            abi.encodeWithSelector(\n                _ida.updateSubscription.selector,\n                _cashToken,\n                INDEX_ID,\n                sender,\n                senderUnits - uint128(amount),\n                new bytes(0) // placeholder ctx\n            ),\n            new bytes(0) // user data\n        );\n\n        _host.callAgreement(\n            _ida,\n            abi.encodeWithSelector(\n                _ida.updateSubscription.selector,\n                _cashToken,\n                INDEX_ID,\n                recipient,\n                recipientUnits + uint128(amount),\n                new bytes(0) // placeholder ctx\n            ),\n            new bytes(0) // user data\n        );\n    }\n\n}\n",
  "sourcePath": "/Users/ringaile/Documents/workspace/protocol-monorepo/examples/rewards-distribution-token/contracts/DividendRightsToken.sol",
  "compiler": {
    "name": "solc",
    "version": "0.7.3+commit.9bfce1f6.Emscripten.clang"
  },
  "schemaVersion": "3.4.3",
  "updatedAt": "2021-10-10T13:36:50.212Z",
  "devdoc": {
    "kind": "dev",
    "methods": {
      "allowance(address,address)": {
        "details": "See {IERC20-allowance}."
      },
      "approve(address,uint256)": {
        "details": "See {IERC20-approve}. Requirements: - `spender` cannot be the zero address."
      },
      "balanceOf(address)": {
        "details": "See {IERC20-balanceOf}."
      },
      "decimals()": {
        "details": "Returns the number of decimals used to get its user representation. For example, if `decimals` equals `2`, a balance of `505` tokens should be displayed to a user as `5,05` (`505 / 10 ** 2`). Tokens usually opt for a value of 18, imitating the relationship between Ether and Wei. This is the value {ERC20} uses, unless {_setupDecimals} is called. NOTE: This information is only used for _display_ purposes: it in no way affects any of the arithmetic of the contract, including {IERC20-balanceOf} and {IERC20-transfer}."
      },
      "decreaseAllowance(address,uint256)": {
        "details": "Atomically decreases the allowance granted to `spender` by the caller. This is an alternative to {approve} that can be used as a mitigation for problems described in {IERC20-approve}. Emits an {Approval} event indicating the updated allowance. Requirements: - `spender` cannot be the zero address. - `spender` must have allowance for the caller of at least `subtractedValue`."
      },
      "distribute(uint256)": {
        "details": "Distribute `amount` of cash among all token holders"
      },
      "increaseAllowance(address,uint256)": {
        "details": "Atomically increases the allowance granted to `spender` by the caller. This is an alternative to {approve} that can be used as a mitigation for problems described in {IERC20-approve}. Emits an {Approval} event indicating the updated allowance. Requirements: - `spender` cannot be the zero address."
      },
      "issue(address,uint256)": {
        "details": "Issue new `amount` of giths to `beneficiary`"
      },
      "name()": {
        "details": "Returns the name of the token."
      },
      "owner()": {
        "details": "Returns the address of the current owner."
      },
      "renounceOwnership()": {
        "details": "Leaves the contract without owner. It will not be possible to call `onlyOwner` functions anymore. Can only be called by the current owner. NOTE: Renouncing ownership will leave the contract without an owner, thereby removing any functionality that is only available to the owner."
      },
      "symbol()": {
        "details": "Returns the symbol of the token, usually a shorter version of the name."
      },
      "totalSupply()": {
        "details": "See {IERC20-totalSupply}."
      },
      "transfer(address,uint256)": {
        "details": "See {IERC20-transfer}. Requirements: - `recipient` cannot be the zero address. - the caller must have a balance of at least `amount`."
      },
      "transferFrom(address,address,uint256)": {
        "details": "See {IERC20-transferFrom}. Emits an {Approval} event indicating the updated allowance. This is not required by the EIP. See the note at the beginning of {ERC20}. Requirements: - `sender` and `recipient` cannot be the zero address. - `sender` must have a balance of at least `amount`. - the caller must have allowance for ``sender``'s tokens of at least `amount`."
      },
      "transferOwnership(address)": {
        "details": "Transfers ownership of the contract to a new account (`newOwner`). Can only be called by the current owner."
      }
    },
    "version": 1
  },
  "userdoc": {
    "kind": "user",
    "methods": {},
    "notice": "The dividends rights token show cases two use cases 1. Use Instant distribution agreement to distribute tokens to token holders. 2. Use SuperApp framework to update `isSubscribing` when new subscription is approved by token holder.",
    "version": 1
  }
}